{
  "contractName": "Faucet",
  "abi": [
    {
      "inputs": [
        {
          "internalType": "uint256",
          "name": "",
          "type": "uint256"
        }
      ],
      "name": "funders",
      "outputs": [
        {
          "internalType": "address",
          "name": "",
          "type": "address"
        }
      ],
      "stateMutability": "view",
      "type": "function",
      "constant": true
    },
    {
      "inputs": [],
      "name": "noOfFunders",
      "outputs": [
        {
          "internalType": "uint256",
          "name": "",
          "type": "uint256"
        }
      ],
      "stateMutability": "view",
      "type": "function",
      "constant": true
    },
    {
      "inputs": [],
      "name": "owner",
      "outputs": [
        {
          "internalType": "address",
          "name": "",
          "type": "address"
        }
      ],
      "stateMutability": "view",
      "type": "function",
      "constant": true
    },
    {
      "inputs": [],
      "name": "test",
      "outputs": [
        {
          "internalType": "uint256",
          "name": "",
          "type": "uint256"
        }
      ],
      "stateMutability": "view",
      "type": "function",
      "constant": true
    },
    {
      "inputs": [],
      "name": "testNum",
      "outputs": [
        {
          "internalType": "uint256",
          "name": "",
          "type": "uint256"
        }
      ],
      "stateMutability": "view",
      "type": "function",
      "constant": true
    },
    {
      "stateMutability": "payable",
      "type": "receive",
      "payable": true
    },
    {
      "inputs": [],
      "name": "test1",
      "outputs": [],
      "stateMutability": "nonpayable",
      "type": "function"
    },
    {
      "inputs": [],
      "name": "test2",
      "outputs": [],
      "stateMutability": "nonpayable",
      "type": "function"
    },
    {
      "inputs": [],
      "name": "addFunds",
      "outputs": [],
      "stateMutability": "payable",
      "type": "function",
      "payable": true
    },
    {
      "inputs": [],
      "name": "emitLog",
      "outputs": [
        {
          "internalType": "bytes32",
          "name": "",
          "type": "bytes32"
        }
      ],
      "stateMutability": "pure",
      "type": "function",
      "constant": true
    },
    {
      "inputs": [
        {
          "internalType": "address",
          "name": "newOwner",
          "type": "address"
        }
      ],
      "name": "transferOwnership",
      "outputs": [],
      "stateMutability": "nonpayable",
      "type": "function"
    },
    {
      "inputs": [
        {
          "internalType": "uint8",
          "name": "index",
          "type": "uint8"
        }
      ],
      "name": "getFunderAtIndex",
      "outputs": [
        {
          "internalType": "address",
          "name": "",
          "type": "address"
        }
      ],
      "stateMutability": "view",
      "type": "function",
      "constant": true
    },
    {
      "inputs": [
        {
          "internalType": "uint256",
          "name": "withdrawAmount",
          "type": "uint256"
        }
      ],
      "name": "withdraw",
      "outputs": [],
      "stateMutability": "nonpayable",
      "type": "function"
    }
  ],
  "bytecode": "0x608060405234801561001057600080fd5b50336000806101000a81548173ffffffffffffffffffffffffffffffffffffffff021916908373ffffffffffffffffffffffffffffffffffffffff1602179055506103e8600181905550610a23806100696000396000f3fe6080604052600436106100ab5760003560e01c8063a26759cb11610064578063a26759cb146101a1578063ae28f1ed146101ab578063dc0d3dff146101d6578063f2fde38b14610213578063f42c13bf1461023c578063f8a8fd6d14610267576100b2565b80630a93cf33146100b75780632e1a7d4d146100f457806347cac45c1461011d57806366e41cb7146101485780636b59084d1461015f5780638da5cb5b14610176576100b2565b366100b257005b600080fd5b3480156100c357600080fd5b506100de60048036038101906100d9919061069d565b610292565b6040516100eb919061070b565b60405180910390f35b34801561010057600080fd5b5061011b6004803603810190610116919061075c565b6102d2565b005b34801561012957600080fd5b50610132610369565b60405161013f9190610798565b60405180910390f35b34801561015457600080fd5b5061015d61036f565b005b34801561016b57600080fd5b506101746103ff565b005b34801561018257600080fd5b5061018b61048f565b604051610198919061070b565b60405180910390f35b6101a96104b3565b005b3480156101b757600080fd5b506101c0610523565b6040516101cd9190610798565b60405180910390f35b3480156101e257600080fd5b506101fd60048036038101906101f8919061075c565b610529565b60405161020a919061070b565b60405180910390f35b34801561021f57600080fd5b5061023a600480360381019061023591906107df565b61055c565b005b34801561024857600080fd5b5061025161062d565b60405161025e9190610825565b60405180910390f35b34801561027357600080fd5b5061027c610655565b6040516102899190610798565b60405180910390f35b6000600260008360ff16815260200190815260200160002060009054906101000a900473ffffffffffffffffffffffffffffffffffffffff169050919050565b80670de0b6b3a764000081111561031e576040517f08c379a0000000000000000000000000000000000000000000000000000000008152600401610315906108c3565b60405180910390fd5b3373ffffffffffffffffffffffffffffffffffffffff166108fc839081150290604051600060405180830381858888f19350505050158015610364573d6000803e3d6000fd5b505050565b60035481565b60008054906101000a900473ffffffffffffffffffffffffffffffffffffffff1673ffffffffffffffffffffffffffffffffffffffff163373ffffffffffffffffffffffffffffffffffffffff16146103fd576040517f08c379a00000000000000000000000000000000000000000000000000000000081526004016103f490610955565b60405180910390fd5b565b60008054906101000a900473ffffffffffffffffffffffffffffffffffffffff1673ffffffffffffffffffffffffffffffffffffffff163373ffffffffffffffffffffffffffffffffffffffff161461048d576040517f08c379a000000000000000000000000000000000000000000000000000000000815260040161048490610955565b60405180910390fd5b565b60008054906101000a900473ffffffffffffffffffffffffffffffffffffffff1681565b6000600360008154809291906104c8906109a4565b919050559050336002600083815260200190815260200160002060006101000a81548173ffffffffffffffffffffffffffffffffffffffff021916908373ffffffffffffffffffffffffffffffffffffffff16021790555050565b60015481565b60026020528060005260406000206000915054906101000a900473ffffffffffffffffffffffffffffffffffffffff1681565b60008054906101000a900473ffffffffffffffffffffffffffffffffffffffff1673ffffffffffffffffffffffffffffffffffffffff163373ffffffffffffffffffffffffffffffffffffffff16146105ea576040517f08c379a00000000000000000000000000000000000000000000000000000000081526004016105e190610955565b60405180910390fd5b806000806101000a81548173ffffffffffffffffffffffffffffffffffffffff021916908373ffffffffffffffffffffffffffffffffffffffff16021790555050565b60007f48656c6c6f204c6f676765720000000000000000000000000000000000000000905090565b6000600154905090565b600080fd5b600060ff82169050919050565b61067a81610664565b811461068557600080fd5b50565b60008135905061069781610671565b92915050565b6000602082840312156106b3576106b261065f565b5b60006106c184828501610688565b91505092915050565b600073ffffffffffffffffffffffffffffffffffffffff82169050919050565b60006106f5826106ca565b9050919050565b610705816106ea565b82525050565b600060208201905061072060008301846106fc565b92915050565b6000819050919050565b61073981610726565b811461074457600080fd5b50565b60008135905061075681610730565b92915050565b6000602082840312156107725761077161065f565b5b600061078084828501610747565b91505092915050565b61079281610726565b82525050565b60006020820190506107ad6000830184610789565b92915050565b6107bc816106ea565b81146107c757600080fd5b50565b6000813590506107d9816107b3565b92915050565b6000602082840312156107f5576107f461065f565b5b6000610803848285016107ca565b91505092915050565b6000819050919050565b61081f8161080c565b82525050565b600060208201905061083a6000830184610816565b92915050565b600082825260208201905092915050565b7f776974686472617720616d6f756e742073686f756c64206265206c657373207460008201527f68616e2031206574686572000000000000000000000000000000000000000000602082015250565b60006108ad602b83610840565b91506108b882610851565b604082019050919050565b600060208201905081810360008301526108dc816108a0565b9050919050565b7f6f6e6c79206f776e65722063616e2063616c6c20746869732066756e6374696f60008201527f6e00000000000000000000000000000000000000000000000000000000000000602082015250565b600061093f602183610840565b915061094a826108e3565b604082019050919050565b6000602082019050818103600083015261096e81610932565b9050919050565b7f4e487b7100000000000000000000000000000000000000000000000000000000600052601160045260246000fd5b60006109af82610726565b91507fffffffffffffffffffffffffffffffffffffffffffffffffffffffffffffffff8214156109e2576109e1610975565b5b60018201905091905056fea264697066735822122047e58dc7732900bf5d14995a81a4d8da8d7d01c53543a6c3b9dc454e7268ce0164736f6c634300080a0033",
  "immutableReferences": {},
  "source": "// SPDX-License-Identifier: UNLICENSED\r\npragma solidity >=0.5.0 <0.9.0;\r\nimport \"./Owned.sol\";\r\nimport \"./Logger.sol\";\r\nimport \"./IFaucet.sol\";\r\n\r\ncontract Faucet is Owned, Logger, IFaucet {\r\n    mapping(uint256 => address) public funders;\r\n    uint256 public noOfFunders;\r\n\r\n    receive() external payable {}\r\n\r\n    function test1() external adminCheck {\r\n        // some stuff only admin can access\r\n    }\r\n\r\n    function test2() external adminCheck {\r\n        // some stuff only admin can access\r\n    }\r\n\r\n    modifier limitWithdrawal(uint256 withdrawAmount) {\r\n        require(\r\n            withdrawAmount <= 1000000000000000000,\r\n            \"withdraw amount should be less than 1 ether\"\r\n        );\r\n        _; // just like next() in express\r\n    } // just like middleware\r\n\r\n    function addFunds() external payable override {\r\n        uint256 index = noOfFunders++;\r\n        funders[index] = msg.sender;\r\n    }\r\n\r\n    function emitLog() public pure override returns (bytes32) {\r\n        return \"Hello Logger\";\r\n    }\r\n\r\n    function transferOwnership(address newOwner) external adminCheck {\r\n        owner = newOwner; // transfer the ownership\r\n    }\r\n\r\n    function getFunderAtIndex(uint8 index) external view returns (address) {\r\n        return funders[index];\r\n    }\r\n\r\n    function withdraw(uint256 withdrawAmount)\r\n        external\r\n        override\r\n        limitWithdrawal(withdrawAmount)\r\n    {\r\n        payable(msg.sender).transfer(withdrawAmount);\r\n    }\r\n}\r\n\r\n// const instance = await Faucet.deployed()\r\n\r\n// await instance.addFunds({from:accounts[1],value:\"1000000000000000000\"})\r\n// await instance.addFunds({from:accounts[0],value:\"2000000000000000000\"})\r\n\r\n// await instance.withdraw(\"500000000000000000000\",{from: accounts[1]})\r\n// await instance.withdraw(\"3000000000000000000\",{from: accounts[1]}) - not allowed\r\n\r\n// await instance.test1() - admin (will work)\r\n// await instance.test1({from: accounts[1]}) - admin (will not work)\r\n\r\n// instance.getFunderAtIndex(0)\r\n",
  "sourcePath": "C:\\web development\\My Projects\\Blockchain\\blockhain-solidity-web3-react\\blockchain\\frontend\\contracts\\Faucet.sol",
  "compiler": {
    "name": "solc",
    "version": "0.8.10+commit.fc410830.Emscripten.clang"
  },
  "schemaVersion": "3.4.7",
  "updatedAt": "2022-05-30T16:11:32.805Z",
  "networkType": "ethereum",
  "devdoc": {
    "kind": "dev",
    "methods": {},
    "version": 1
  },
  "userdoc": {
    "kind": "user",
    "methods": {},
    "version": 1
  }
}